:100000000C94A4030C94C1030C94C1030C94C1037D
:100010000C94C1030C94C1030C94C1030C94C10350
:100020000C94C1030C94C1030C94B02B0C94822C3F
:100030000C94F3210C94C1030C94C1030C94C103E0
:100040000C94C1030C94C1030C94C1030C94C10320
:100050000C94C1030C945B220C94C1030C94C10357
:100060000C94C1030C94C1030C94C1030C94C10300
:100070000C94C1030C94C1030C94C1030C94C103F0
:100080000C94C1030C94C1030C94C1030C94C103E0
:100090000C94C1030C94C1030C94C1030C94C103D0
:1000A0000C94C1030C94C1030C94C1035304560473
:1000B00059045C045F046104640452065806600637
:1000C000660670067A0685069006BA06BF06C90659
:1000D000BD06C206C706C5068707890794078B07B2
:1000E0008D078F0791079307960798079A07A5072B
:1000F0009C079E07A007A207A407A70792179217BD
:10010000CC17CC17011821188E19ED196318ED19A9
:10011000131913198619ED19ED19E8192019201969
:100120002019201920192019201920192019201907
:1001300020192019201920192019201932193F19C6
:1001400046194D1957197C1A7C1A8E1A8E1A851A5F
:100150008E1A8E1A8E1A7C1A7C1A8A1A8E1A8E1A87
:100160008A1AEF2C162D082E162D082E622D852D9D
:10017000082EDB2DEA2D07634236B79BD8A71A3924
:10018000685618AEBAAB558C1D3CB7CC5763BD6DE5
:10019000EDFD753EF6177231BF000000803F05A8E7
:1001A0004CCDB2D44EB93836A9020C50B9918688DC
:1001B000083CA6AAAA2ABE000000803F6572676FAD
:1001C000646F785F657A2F3131323539393031617A
:1001D0003933393361643464313539204020302E6D
:1001E000352E3236342D362D67376339643561004C
:1001F0006572676F646F785F657A2F313132353998
:1002000039303161393339336164346431353920FF
:100210004020302E352E3236342D362D6737633957
:10022000643561000000F0A127002B00E000E10030
:10023000E30000001E00140004001D0035004D0006
:100240001F001A0016001B0001512B00200008009F
:100250000700060050002C002100150009001900BD
:100260004F004A00220017000A0005000000290084
:100270009100260200002F000000E30090002702FA
:10028000000030000000E20023001C000B00110001
:1002900000002900240018000D00100052004B003F
:1002A00025000C000E003600510028002600120028
:1002B0000F0037002F002A002D00130033003800F4
:1002C00030004E002E0031003400E500E300000055
:1002D000D65CDA5C0100010001000000D75C01007F
:1002E0000100010001000100D85C010001000100D3
:1002F00001000100D95C01000100010001000100C2
:10030000BB5CC25CBE5C010001000100D55CC15C4D
:10031000BD5C010000000100BA5C010000000100AA
:1003200000000100010001000000010000000100C8
:1003300001000100010001000000010001000100B6
:1003400001000100010001000100010001000100A5
:100350000100010001000100010001000100010095
:100360000100010001000100010001000100010085
:10037000010001000100000000000000000000007A
:100380002A2B2800000000000000000000000000F0
:1003900000000029000000002C1E342021222434FB
:1003A0002627252E362D3738271E1F2021222324CD
:1003B00025263333362E37381F0405060708090A69
:1003C0000B0C0D0E0F101112131415161718191A05
:1003D0001B1C1D2F3130232D350405060708090A83
:1003E0000B0C0D0E0F101112131415161718191AE5
:1003F0001B1C1D2F3130354C000000000000000098
:1004000000000000000000000000000000000000EC
:1004100000000000000000000001010101010100D6
:1004200001010101000000000000000000000000C8
:1004300000000100010001010101010101010101B0
:10044000010101010101010101010101010101019C
:100450000101010000000101000000000000000097
:10046000000000000000000000000000000000008C
:1004700000000001010101006801F000B4007800F3
:100480005A007F3F1F643214643214783C1E1E14DD
:100490000A05000000000001010101010101010144
:1004A0000202020202020202020303030303030325
:1004B00003040404040404050505050506060606F0
:1004C0000607070707080808080909090A0A0A0AA7
:1004D0000B0B0B0C0C0C0D0D0D0E0E0F0F0F101047
:1004E00011111112121313141415151616171718CB
:1004F0001819191A1A1B1C1C1D1D1E1F1F20202134
:1005000022222324252526272728292A2B2B2C2D78
:100510002E2F2F30313233343536363738393A3B97
:100520003C3D3E3F4041424344464748494A4B4C8C
:100530004D4F50515253555657585A5B5C5E5F6051
:100540006263646667696A6C6D6E707173747678E5
:10055000797B7C7E8081838486888A8B8D8F919243
:100560009496989A9B9D9FA1A3A5A7A9ABADAFB167
:10057000B3B5B7B9BBBDBFC1C4C6C8CACCCFD1D350
:10058000D6D8DADCDFE1E4E6E8EBEDF0F2F5F7FAF5
:10059000FCFF0403300000001603450072006700F2
:1005A0006F0044006F007800200045005A000000F2
:1005B00016034500720067006F0044006F0078006A
:1005C000200045005A0000000403090409026D00E0
:1005D000040100A0FA09040000010301010009213F
:1005E000110100012240000705810308000A0904E7
:1005F00001000103010200092111010001224D0047
:100600000705820308000A09040200010300000034
:100610000921110100012236000705830308000AA1
:100620000904030001030000000921110100012257
:1006300039000705840320000112011001000000A9
:1006400008EDFE071301000102030105010906A1DF
:1006500001050719E029E7150025019508750181B5
:100660000205081901290595057501910295017585
:100670000391010507190029F71500250195F87563
:10068000018102C005010980A10185021601002631
:1006900003001A81002A8300751095018100C005AE
:1006A0000C0901A1018503160100269C021A010014
:1006B0002A9C02751095018100C005010902A10163
:1006C0000901A10005091901290515002501950554
:1006D0007501810295017503810105010930093118
:1006E0001581257F95027508810609381581257FBA
:1006F000950175088106050C0A38021581257F953C
:100700000175088106C0C005010906A10105071988
:10071000E029E7150025019508750181029501750D
:1007200008810105081901290595057501910295B2
:1007300001750391010507190029FF150026FF0027
:10074000950675088100C00011241FBECFEFDAE0C6
:10075000DEBFCDBF11E0A0E0B1E0EAEFF3E602C0FA
:1007600005900D92AC3DB107D9F723E0ACEDB1E0B7
:1007700001C01D92AB3BB207E1F70E94D5280C9453
:10078000FB310C9400001092B9008AE08093B8000D
:10079000089594EA9093BC009091BC0097FFFCCF21
:1007A0009091B900987F983021F0903111F081E05C
:1007B00008958093BB0084E88093BC008091BC00C6
:1007C00087FFFCCF8091B900887F883111F0803499
:1007D00071F780E0089584E98093BC008091BC00AB
:1007E00084FDFCCF08958093BB0084E88093BC0017
:1007F0008091BC0087FFFCCF9091B900987F81E089
:10080000983209F480E0089584E88093BC008091D8
:10081000BC0087FFFCCF8091BB00089580B38C7033
:1008200080BB81B3836F81BB089584B1807F84B91D
:1008300085B1807F85B98AB1837F8AB98BB1837F87
:100840008BB93E9846980895CF93E82F873008F5E6
:100850008091000181113AC0CE2F80E40E94C9032B
:1008600080930001811112C082E10E94F303809302
:10087000000181110BC081E090E001C0880FCA9592
:10088000EAF780950E94F30380930001CF910C94C6
:10089000EB0390E0FC013797E730F105B8F4EA5A32
:1008A000FF4F0C94AD31209A289810C0219A2998B6
:1008B0000DC0229A2A980AC0239A2B9807C0529AF0
:1008C00001C0539A5B9802C03E9A4698CF91089512
:1008D000CF93873018F580910001811128C080E402
:1008E0000E94C90380930001882311F0C0E012C068
:1008F00083E10E94F303809300018111F7CF81E42B
:100900000E94C903809300018111F0CF0E9404046A
:10091000C82FC0950E94EB038C2F0AC09FB18FB1E6
:10092000807F869586959370892B809501C080E0A5
:10093000CF91089508950C949A040E94E70580933E
:1009400000010E9415040E940E042DED31E0E1E348
:10095000F2E04EE04E0F119280E090E0D901A80F36
:10096000B91F1C92019686309105C1F72A5F3F4F4F
:100970004E13F1CF0C94F9090E94E7058093000112
:100980000E9415040E940E04E1E3F2E08EE08E0F57
:1009900011928E13FDCF089526E0829FC00111248D
:1009A000FC01E352FE4F20E030E080E041E050E007
:1009B0009081992319F09150908307C0BA01022EBB
:1009C00001C0660F0A94EAF7862B2F5F3F4F3196DE
:1009D0002630310569F7089596E0699FB00111242A
:1009E00020E030E090E04FE0FC01022E02C0F595DF
:1009F000E7950A94E2F7E0FF06C0F901E60FF71F5A
:100A0000E352FE4F40832F5F3F4F2630310561F7A1
:100A10000895CF92DF92EF92FF920F931F93CF939F
:100A2000DF9380910001882379F08091DC018F5F52
:100A30008093DC01811108C00E94E70580930001CA
:100A4000811102C00E94790581E3C82E82E0D82E70
:100A500098E3E92E92E0F92EC0E08C2F0E94240446
:100A600007E00C0F802F0E9424048C2F0E94CC04DE
:100A7000182F8C2F0E946804F6019081D12FD095F9
:100A8000D9238123D82B6C2F8D2F89270E94EC042A
:100A9000F601D1936F01802F0E94CC04182F802F74
:100AA0000E946804F7019081D12FD095D92381232A
:100AB000D82B602F8D2F89270E94EC04F701D1934A
:100AC0007F010E941504CF5FC73039F60E94FB09F1
:100AD00081E0DF91CF911F910F91FF90EF90DF9018
:100AE000CF900895E82FF0E0EF5CFD4F80810895EE
:100AF000089556985E9825982D9826982E982798B0
:100B00002F988FEF90E090938900809388009093C6
:100B10008B0080938A0090938D0080938C00259A9F
:100B20002D9A2FEF80E792E0215080409040E1F72E
:100B300000C00000269A2E9A2FEF80E792E0215005
:100B400080409040E1F700C00000279A2F9A2FEFD5
:100B500080E792E0215080409040E1F700C0000023
:100B600025982D982FEF80E792E02150804090400B
:100B7000E1F700C0000026982E982FEF80E792E062
:100B8000215080409040E1F700C0000027982F9846
:100B900056985E9825982D9826982E9827982F98E5
:100BA000089589EA8093800089E0809381002498E9
:100BB0002C983F988AB18F7C8AB96E98479A8BB1EE
:100BC00080638BB9769A0E9479050C94430680E283
:100BD0008093000180913F0281110EC00E94C303E7
:100BE00081E080933F022FEF83ED90E3215080401E
:100BF0009040E1F700C0000080E40E94C9038093A8
:100C0000000181112EC00E94F30380930001811125
:100C100028C00E94F30380930001811122C08FE35A
:100C20000E94F3038093000181111BC00E94EB031B
:100C300080E40E94C90380930001811112C08CE0FE
:100C40000E94F3038093000181110BC00E94F30303
:100C500080930001811105C08FE30E94F30380930C
:100C600000010E94EB03809100010895611108C00A
:100C7000FC018281882321F080EF91E00E94F60937
:100C800080E090E008950895FC01E35DFC45E830C4
:100C9000F10508F053C0DB01E35AFF4F12968C9127
:100CA0000C94AD31882309F44AC00E94F52044C059
:100CB000882309F444C08CEB91E00E94F6093CC003
:100CC0008823E9F181E00E943C1036C08823B9F105
:100CD0000E94CA1081E00E943C104FEF6FEF1EC0CF
:100CE000882369F10E94CA1081E00E943C104FEFF6
:100CF00060E009C0882319F10E94CA1081E00E94B7
:100D00003C1040E06FEF80E015C08823C1F00E94E6
:100D1000CA1081E00E943C1040E060E08FEF0AC002
:100D2000882369F00E94CA1081E00E943C104FEFB6
:100D300063EB80E80E94A20E80E0089581E00895B0
:100D4000CF92DF92EF92FF926B017C010E94A5206F
:100D500056985E9825982D9826982E9827982F9823
:100D600090E0FC013197E730F105A8F4EB59FF4F13
:100D70000C94AD31259A2D9A0EC0259A2D9A269A5B
:100D80002E9A09C0259A2D9A04C0259A2D9A269A42
:100D90002E9A279A2F9AC701B601FF90EF90DF9005
:100DA000CF90089581E008950C9444060E946A1A39
:100DB0002FEF84E39CE0215080409040E1F700C099
:100DC00000000C948122FF920F931F93CF93DF9327
:100DD0008C01FC01C081D18180919102811113C0ED
:100DE0008281882349F0CE010E949B1FF82E682F34
:100DF000CE010E943E1F04C0CE010E946E1FF82E3D
:100E0000BE018F2D04C0CE010E949B1FBE010E9417
:100E1000110AEC01B8010E94D406882309F486C2A5
:100E2000B801CE010E94840C882309F47FC2B80166
:100E3000CE010E94D30C882309F478C2C23CFCE5A1
:100E4000DF0741F4F8018281882309F46FC20E9410
:100E500022106CC2C33C8CE5D80708F015C1CB3B0F
:100E60009CE5D90761F4F8018281882309F45EC208
:100E70000E946C208272E1F00E94C11057C2CC3BEC
:100E8000ECE5DE07C0F0CE3B9CE5D90709F4CDC008
:100E900008F0DFC0CC3BFCE5DF0709F0CEC0F8016D
:100EA0008281882309F442C20E946C20827221F35D
:100EB0000E94B7103BC2C531FCE5DF0708F07EC0D9
:100EC000C2308CE5D80708F452C0F801828188232B
:100ED00009F459C00E941621811102C00E94F52018
:100EE0000E94292190E09093AD038093AC03FE0112
:100EF000E350FC45E231F10530F4E459FF4F8091B5
:100F0000AC030C94AD318091AC03816027C082604A
:100F100025C0846023C0806121C080621FC08064BE
:100F20001DC080681BC08460886018C08E7F16C09A
:100F30008D7F14C08B7F12C08F7E10C08F7D0EC03E
:100F40008F7B0CC08F770AC08B7F877F07C087FBA2
:100F5000222720F991E0922790FB87F98093AC0338
:100F60008091AC030E942D210E946A1ADFC1C11535
:100F70009CE5D90781F0C130DC45A9F081E0809380
:100F8000450280934602C801DF91CF911F910F91D6
:100F9000FF900C94D206F8018281882309F4C6C11F
:100FA0000E94D606C3C1F8018281882309F4BEC11C
:100FB00080913003816080933003B8C1C531FCE576
:100FC000DF0739F50E946C20282FF80182814091BB
:100FD000030150910401882379F02A7A91E009F401
:100FE00090E090934002911102C069E201C065E374
:100FF000CA010E948E210AC080914002811102C064
:1010000069E201C065E3CA010E9499210E9439206A
:101010008DC1CA3BDC4509F0B1CFF801828188233C
:1010200009F484C10E94FE1081C1F80182818823E5
:1010300009F47CC10E94C40F79C1CD3BDC4509F0A5
:101040009DCFF8018281882309F470C10E94AC0F02
:101050006DC1F8018281C03CFCE5DF0731F48823D3
:1010600009F464C10E94F50F61C1C13CDC4530F454
:10107000882309F45BC10E94E30F58C1882309F457
:1010800055C10E94071052C1C93CECE5DE0749F486
:10109000F8018281882309F449C188E10E943C104B
:1010A00045C1CA3CFCE5DF0708F088C0C53C8CE5BB
:1010B000D807B1F4F8018281882309F437C10E946E
:1010C0007D0E663071058105910540F00E947D0E10
:1010D000683071058105910508F4EACE86E0DECF1F
:1010E000C63C9CE5D90728F5C33CECE5DE0739F49E
:1010F000F8018281882309F419C181E0CFCFC43C73
:10110000DC4509F03BCFF8018281882309F40EC148
:101110000E947D0E623071058105910540F00E94AC
:101120007D0E653071058105910508F4C1CE82E020
:10113000B5CFF8018281C73CFCE5DF07A1F4882325
:1011400009F4F4C00E947D0E6F3071058105910590
:1011500040F00E947D0E643171058105910508F40F
:10116000A7CE8FE09BCFC83CDC45A0F4882309F4D0
:10117000DDC00E947D0E693071058105910540F04A
:101180000E947D0E6E3071058105910508F490CEA8
:1011900089E084CF882309F4C9C00E947D0E65319F
:1011A00071058105910540F00E947D0E6731710542
:1011B0008105910508F47CCE85E170CFCC3CECE54F
:1011C000DE0781F5F8018281882361F010924602E2
:1011D0000E942522909344028093430280E20E9461
:1011E0004717A4C00E946C2081FF05C081E0809356
:1011F0004502809346028091460281110FC0809182
:101200004302909144020E943122883C910530F4BF
:1012100087E20E94D91587E20E94E81680E20E94C8
:101220004E1784C0CD3CFCE5DF0708F04AC0CA3C3D
:101230008CE5D807B1F4F8018281882309F476C0DF
:101240000E947D0E693171058105910540F00E9473
:101250007D0E623271058105910508F429CE89E180
:101260001DCFCB3CDC4509F089CEF8018281882373
:1012700051F0109245020E942522909342028093E1
:10128000410282E0ACCF0E946C2085FF05C081E066
:1012900080934502809346028091450281110FC0E0
:1012A00080914102909142020E943122883C910536
:1012B00030F486E20E94D91586E20E94E81682E0A8
:1012C000AECFC03DECE5DE0731F4F8018281882322
:1012D00069F180E009C0C13DFCE5DF0741F4F80198
:1012E0008281882319F182E00E9473291FC0CD3CBE
:1012F000DC4509F043CEF8018281811167CF8091EE
:10130000460281118BCF80914302909144020E944A
:101310003122883C910508F081CF80E20E944E176F
:1013200088E20E94D91588E20E94E81680E0DF91E9
:10133000CF911F910F91FF900895CF93282F30E008
:10134000F901E858FC4FC491F901E850FC4F249191
:10135000222359F081EE0E94D9158C2F0E94D915B5
:101360008C2F0E94E81681EE04C08C2F0E94D915A4
:101370008C2FCF910C94E8160F931F93CF93DF938C
:10138000EC01062FFE018491882359F19E012F5F05
:101390003F4F813041F4E901F9011491812F0E94FE
:1013A000D915812F0DC0823031F4E901F901849102
:1013B0000E94D9150AC0833031F4E901F901849102
:1013C0000E94E81602C00E949D092196802F882362
:1013D000C9F2EFE9FFE03197F1F700C0000081505A
:1013E000F6CFDF91CF911F910F91089560E00C949B
:1013F000BC090C94D1050C949B04282F2F7041F04C
:10140000822F90E02A3010F44D96089506970895A3
:1014100087E290E0089508950C940B0A0C940C0A4E
:10142000089596E0799FF001112494E5899FE00DDD
:10143000F11D1124E60FF11DEE0FFF1FE85DFD4FBA
:10144000859194910895880F991FFC01EC5DFD4FE3
:10145000859194910895CF93DF930E94110A0E9481
:10146000DA0BEC01811520E59207F0F5811530E4E7
:10147000930708F021C1883E910500F5803E910553
:1014800008F094C1883A910570F4853A910508F006
:10149000A3C08130910509F489C108F440C10497C3
:1014A00008F084C13CC18D3B910508F4A0C0803C8C
:1014B000910508F434C1805C9109F0C08115904217
:1014C00058F4C11581E0D80708F070C1C03FD105BC
:1014D00008F425C1D0656AC1C11590E3D90708F0A9
:1014E000E1C0CE019F70DAC0811525E5920708F0B2
:1014F00043C0811534E5930708F0F5C0811542E536
:10150000940708F5C11581E5D80708F0D8C02C2F3D
:10151000237081E090E002C0880F991F2A95E2F7BE
:101520009C689E0174E0369527957A95E1F72370C3
:10153000922BCF70C695C69540E2C49FE00111245E
:10154000C82BD92B33C1869586959E0123703327EE
:10155000C115D34508F0B8C040E2849FC0011124F2
:10156000C1E0D0E002C0CC0FDD1F2A95E2F78C2B42
:101570009D2BEC01DC681AC181152AE5920798F4CD
:10158000811539E5930708F0B9C08115964508F42F
:10159000AFC0C11588E5D80708F4C1C0DC2FCC273F
:1015A000C06FD06A03C1C1159BE5D90708F4B7C065
:1015B000C1152CE5D20708F4AFC0CE0190568115B5
:1015C000904208F0ACC08D2F8F710E94570CDD2720
:1015D000D0628F71D82BEAC0853A910509F4A2C078
:1015E000863A910509F0A1C0C2E8D0E4DFC0883A8C
:1015F000910509F49DC0893A910509F49CC08A3A85
:10160000910509F49BC08B3A910509F49AC08C3A74
:10161000910509F499C08B3B910509F498C08C3B66
:10162000910509F497C08D3A910509F496C0803B65
:10163000910509F495C08E3A910509F494C08F3A4A
:10164000910509F493C0813B910509F492C0823B56
:10165000910509F491C0833B910509F490C0843B46
:10166000910509F48FC0853B910509F48EC0863B36
:10167000910509F48DC0873B910509F48CC0883B26
:10168000910509F48BC0893B910509F48AC08A3B16
:10169000910509F489C0C0E0D4E488C00E94230AFF
:1016A000EC0184C0CE019927D3FF03C0EC01D86CB4
:1016B0007DC0EC01D06C7AC0DF70D06A77C0DC2FBF
:1016C000CC27C16FD06A72C040E2849FC001112450
:1016D000C1E0D0E002C0CC0FDD1F2A95E2F7C82B95
:1016E000D92BDA6863C0D82FCC27C46FD06A5EC00C
:1016F000CF71DD27DC2FCC27D06258C08F70806E71
:1017000090E0906A24E0D695C7952A95E1F7CF70CE
:101710009C013C2BE9014AC0DD27D06647C0C0E0F0
:10172000D0E044C0C1E8D0E441C0C3E8D0E43EC04A
:10173000C2EED4E43BC0C9EED4E438C0CAEED4E46F
:1017400035C0C5EBD4E432C0C6EBD4E42FC0C3EB44
:10175000D4E42CC0C4EBD4E429C0C7EBD4E426C045
:10176000CCECD4E423C0CDECD4E420C0C3E8D5E471
:101770001DC0CAE8D5E41AC0C2E9D5E417C0C4E95F
:10178000D5E414C0C1E2D6E411C0C3E2D6E40EC071
:10179000C4E2D6E40BC0C5E2D6E408C0C6E2D6E493
:1017A00005C0C7E2D6E402C0CAE2D6E4CE01DF91AA
:1017B000CF9108958238910549F1B0F481339105B4
:1017C00009F458C048F48932910509F44EC08A32B0
:1017D000910509F454C008958533910509F440C07A
:1017E0008933910599F00895833E910529F138F4E4
:1017F000803E910591F0823E9105A1F00895863ECC
:101800009105F9F0873E910531F108952091AC03DF
:1018100020FD3AC021FD38C008958091AC0380FDC1
:1018200035C032C08091AC0382FF32C08091AC03DE
:1018300084FD30C083EE39C08091AC0382FD28C0A6
:10184000F5CF8091AC0383FF27C08091AC0384FD6A
:1018500021C087EE2AC08091AC0383FD1DC0F5CF67
:101860008091AC0385FD1AC01BC08091AC0385FD3F
:1018700017C014C08091AC0386FD14C015C08091C0
:10188000AC0386FD11C00EC080EE0FC089E30DC011
:1018900082EE0BC080E009C086EE07C089E205C079
:1018A00085E303C08AE201C081E390E00895CF930D
:1018B000C82F0E94292190E09093AD038093AC0340
:1018C00082FF0DC09C2F9871983019F4C77FC460B7
:1018D00006C09C2F9471943011F4CB7FC86083FFB5
:1018E0000DC09C2F9871983119F4C77EC46106C051
:1018F0009C2F9471943111F4CB7EC86184FDC77E16
:101900008C2FCF91089508950F931F93CF93FB01D0
:101910002281211102C0C1E041C08C01C09154025A
:10192000C11125C086319C45B1F70E94830C81E02E
:10193000809354020E942522909353028093520276
:1019400010924702109249021092480210924B02E4
:1019500010924A0210924D0210924C0210924F02C5
:1019600010924E02109251021092500217C08091B4
:101970005202909153020E943122883C910558F600
:1019800090914702E92FF0E0EE0FFF1FE85BFD4F5B
:10199000118300839F5F90934702C0E08C2FCF910B
:1019A0001F910F910895CF93DF93813020E8920724
:1019B000D0F0FB0122812223B1F0EC01809155028D
:1019C000811109C08CE090E00E94B3310E94F70CB5
:1019D00081E0809355020E94FE0CCE019F770E9409
:1019E000C60D0E947A0D81E0DF91CF91089580931A
:1019F0005602682F8CE090E00C94C731E09103010F
:101A0000F091040180818093610381FF03C081EE26
:101A10000E94E8168091610385FF03C085EE0E9455
:101A2000E8168091610380FF03C080EE0E94E816F3
:101A30008091610384FF03C084EE0E94E8168091C8
:101A4000610382FF03C082EE0E94E8168091610369
:101A500086FF03C086EE0E94E8168091610383FF33
:101A600003C083EE0E94E8168091610387FF03C0E4
:101A700087EE0E94E81680915602823001F1A8F4A8
:101A80008823C9F0813079F580EE0E94D91581EE66
:101A90000E94D91588E10E94D91588E10E94E816B4
:101AA00081EE0E94E81680EE1CC0843081F0853003
:101AB000D1F486EE01C082EE0E94D91514C082EEE8
:101AC0000E94D91587E50E94D91587E50AC086EEE0
:101AD0000E94D91586EE0E94E81688E10E94D91569
:101AE00088E10E94E8168FE39CE90197F1F700C0B6
:101AF0000000089580915602813049F030F0823024
:101B000021F0853051F486EE06C082EE04C08CE2EE
:101B10000E94D9158CE20E94E8168091610381FF32
:101B200003C081EE0E94D9158091610385FF03C037
:101B300085EE0E94D9158091610380FF03C080EE7D
:101B40000E94D9158091610384FF03C084EE0E9436
:101B5000D9158091610382FF03C082EE0E94D915DE
:101B60008091610386FF03C086EE0E94D9158091A3
:101B7000610383FF03C083EE0E94D9158091610346
:101B800087FF03C087EE0C94D9150895EF92FF925A
:101B90001F93CF93DF937C01CCE0D0E097010C2E14
:101BA00002C0369527950A94E2F7122F1F70812FF5
:101BB0000E94FD090E94D915812F0E94FD090E94F3
:101BC000E8162497CC3F8FEFD80741F7DF91CF91EC
:101BD0001F91FF90EF900895EF92FF920F931F9344
:101BE000CF93DF93E901662309F44BC0242F30E043
:101BF000EFEFF0E0E61BF109B901E69F9001E79FE6
:101C0000300DF69F300D1124232F8B01031B11097A
:101C10005CE3E52EF12CB7010E948531FB01BC018C
:101C2000069FC001079F900D169F900D1124B701CC
:101C30000E948531E230F105B1F040F4309779F03F
:101C4000319711F5832F242F461B21C0E430F10575
:101C5000A1F068F03597C1F4842F861B18C0832F3C
:101C6000262F230F14C0862F830FE42F03C0E42FE9
:101C7000E61B842F432F2E2F0AC0842F462F430F9D
:101C800006C0842F242F03C080E020E040E0E42F32
:101C9000F0E0EE56FB4F4491E22FF0E0EE56FB4FA2
:101CA0009491E82FF0E0EE56FB4FE491498398833E
:101CB000EA83DF91CF911F910F91FF90EF900895EC
:101CC00088E090E00C94BB31AB01BC0188E090E06F
:101CD0000C94D931E2E6F3E083E080831092630351
:101CE0008FEF82838383609162037091630380919D
:101CF0006403909165030C94640E6091620360FF2D
:101D000006C066956F7370E080E090E0089560E033
:101D100070E0CB0108958091620380FF06C06FE000
:101D200070E08AE693E00C94041480E090E0FC01FB
:101D3000E659FC4F11821082128204968C33910571
:101D4000B1F7EDCF9091620390FF0FC020E030E03B
:101D5000F901E659FC4F8183608342832C5F3F4F3A
:101D60002C333105A9F70C948B0E0895EF92FF9256
:101D70000F931F93CF93DF9300D000D0CDB7DEB782
:101D80000091620310916303209164033091650315
:101D900000936603109367032093680330936903ED
:101DA0002091620320FF21C0042FF62EE92E182F68
:101DB0009E012F5F3F4F0E94EC0D8091660310FB48
:101DC00087F9809366031695809167038078182BB6
:101DD000E0FA17F910936703F09268030093690320
:101DE0004B8169818A810E94A20E0F900F900F9003
:101DF0000F90DF91CF911F910F91FF90EF90089579
:101E00008F929F92AF92BF92CF92DF92EF92FF920A
:101E10000F931F93CF93DF93EC01062F142F809124
:101E2000620380FF8CC0982F9E77923021F4CE0100
:101E30000E94B60E5AC0E82FE695EF739EE39E0F00
:101E40009F73943018F4109165034FC09AE39E0F6E
:101E50009F73993070F4881F8827881F90916303BF
:101E6000292F220FC22FC82B97FB992790F9D92F22
:101E70003CC087E28E0F8F738A30B8F5F0E0799717
:101E8000E0FD02C021E001C02FEFEE7FE858FB4FDC
:101E9000859194916FE070E00E9485312603600186
:101EA000279FD00C11244E0188E9881A8EEF980ADA
:101EB0008AE6E82E83E0F82E98E6A92EBB24B39498
:101EC000C401B5010E9485319701412F602F0E9406
:101ED000EC0D8C0C9D1C94E0E90EF11C86EAE816D2
:101EE00083E0F80669F70E948B0E809162039C2FB5
:101EF000C0FB87F980936203969580916303807895
:101F0000892BD0FB87F980936303009364031093BC
:101F10006503609162037091630380916403909103
:101F20006503DF91CF911F910F91FF90EF90DF90AC
:101F3000CF90BF90AF909F908F900C94640EDF91E4
:101F4000CF911F910F91FF90EF90DF90CF90BF90B6
:101F5000AF909F908F900895E2E6F3E02081221FDA
:101F60002227221F30916303432F440F842F822B9B
:101F700037FB992790F90C9668E671E00E94993139
:101F8000438162810C94000F20916203221F22275B
:101F9000221F30916303432F440F842F822B37FB82
:101FA000992790F98C3091051CF4845A9E4F01C0FA
:101FB0000C9768E671E00E94993140916503609149
:101FC00064030C94000FE2E6F3E08081881F882709
:101FD000881F90916303292F220F97FB992790F96F
:101FE00043816FEF822B0C94000FE2E6F3E08081D7
:101FF000881F8827881F90916303292F220F97FB42
:10200000992790F9438160E0822B0C94000F409156
:102010006503842F90E0843F910514F4445F01C070
:102020004FEF80916203881F8827881F9091630378
:10203000292F220F97FB992790F960916403822B37
:102040000C94000F40916503842F90E00C9714F0DE
:102050004C5001C040E080916203881F8827881F90
:1020600090916303292F220F97FB992790F9609194
:102070006403822B0C94000F9091620390FF42C086
:102080009178811102C0926007C0833210F094648D
:1020900003C08F73880F982B909362036091620343
:1020A0007091630380916403909165030E94640EB4
:1020B00080916203982F9E77923019F410926C02EF
:1020C00010C0982F96959F732EE3290F2F732731F9
:1020D00020F491E090936C0204C0995D9F739A3054
:1020E00068F3881F8827881F90916303292F220F88
:1020F00097FB992790F94091650360916403822BC7
:102100000C94000F08958091300381608093300318
:1021100081E080936D020E941621811104C00E940B
:10212000F5200E946A0E0E94600E60936203709315
:10213000630380936403909365036E7761F40E9458
:102140006A0E0E94600E6093620370936303809333
:1021500064039093650381E080936C028091620335
:1021600080FF04C086958F730C943C100895809175
:10217000620386958F738F5F833208F081E00C9441
:102180003C108091620386958F73815009F482E23E
:102190000C943C10CF93DF93C2E6D3E0888181603A
:1021A00088836091620370916303809164039091CE
:1021B00065030E94640E888186958F73DF91CF91AD
:1021C0000C943C10E2E6F3E080818E7F8083609186
:1021D00062037091630380916403909165030E9490
:1021E000640E10926C022FEF80E792E02150804045
:1021F0009040E1F700C000000C948B0E80916203C8
:1022000080FD0C94E2100C94CA10CF93C82F8091DB
:102210006A0290916B020E943122EC2FF0E0E257AB
:10222000FB4FE491F0E08E179F0708F443C00E9433
:10223000252290936B0280936A026091690270E09C
:1022400080E090E00E94862F20E030E04FE753E4EA
:102250000E94A92E2BED3FE049E450E40E94AF30EC
:102260000E941C310E94232F2BE43AE34EE25FE3ED
:102270000E943C2E20EF3BEF48ED52E40E94AF302D
:102280000E94552F462F80916203881F8827881F40
:1022900090916303292F220F97FB992790F9609162
:1022A0006403822B0E94B60E8091690290E0019631
:1022B00080936902CF910895CF93C82F80916702D0
:1022C000909168020E943122EC2FF0E0E557FB4F1D
:1022D000E491F0E08E179F07E8F00E94252290938A
:1022E0006802809367024091650360916403809166
:1022F0006502909166020E94B60E809165029091EF
:102300006602019668E671E00E948531909366024C
:1023100080936502CF910895CF92DF92FF920F9341
:102320001F93CF93DF93F82E809163029091640204
:102330000E943122EF2DE695F0E0E857FB4FE49143
:10234000F0E08E179F07E8F10E9425229093640227
:10235000809363020AE613E0C0E0D0E088E6C82E6E
:10236000DD24D39480916102909162028C0F9D1FB5
:10237000B6010E9485319801409165036091640324
:102380000E94EC0D68960C5F1F4FC83681E0D8079D
:1023900049F70E948B0E2091610230916202F0FE9B
:1023A0000AC0C9010196BE010E9485319093620264
:1023B0008093610206C0215031093093620220935C
:1023C0006102DF91CF911F910F91FF90DF90CF902D
:1023D0000895AF92BF92CF92DF92EF92FF920F9348
:1023E0001F93CF93DF93C82F80FF02C01FEF01C060
:1023F00011E080915F02909160020E943122C695A7
:10240000EC2FF0E0EB57FB4FE491F0E08E179F07C5
:1024100008F466C00E9425229093600280935F02B8
:102420002AE6C22E23E0D22E3CE6E32E33E0F32E42
:10243000C0E0D0E0F70131971082F6011082F70179
:10244000108294E0A92EB12C00E080915E02800FF2
:1024500087FD815F082E000C990BC817D907E9F496
:10246000809165038A9DA0018B9D500D1124559587
:1024700047955595479580916203881F8827881F47
:1024800090916303592F550F97FB992790F9960167
:1024900060916403852B0E94EC0D010FF1E0AF1AEF
:1024A000B10899F6219684E0C80ED11CE4E0EE0E46
:1024B000F11CCF30D10509F0BDCF0E948B0E809169
:1024C0005E02113031F4811102C08EE007C08150EC
:1024D00005C090E00196BE010E94993180935E0292
:1024E000DF91CF911F910F91FF90EF90DF90CF90F0
:1024F000BF90AF9008950F931F93CF93DF93C82F92
:1025000080915C0290915D020E943122EC2FF0E0FC
:10251000EE57FB4FE491F0E08E179F0708F464C07C
:102520000E94252290935D0280935C0280E090E0FF
:10253000FC01E659FC4F11821082128204968C3302
:102540009105B1F7C0E0D0E00FE010E0CE01B80196
:102550000E949931FC0180915B02082E000C990BBE
:10256000EE0FFF1FEE0FFF1FC817D907FCF0809179
:102570000201082E000C990B8C179D07BCF09F01DF
:1025800026593C4F80916203881F8827881F9091AD
:102590006303592F550F97FB992790F940916503D5
:1025A00060916403852B0E94EC0D05C0E659FC4F39
:1025B0001182108212822196CF30D10539F60E9405
:1025C0008B0E8091010190915B02980F90935B02BA
:1025D00020910201280F20930201121614F49E305C
:1025E0001CF0819580930101DF91CF911F910F9194
:1025F0000895EF92FF920F931F93CF93DF938091F3
:10260000590290915A020E943122883E9340D0F1A3
:102610000E94252290935A0280935902C09157023A
:10262000D09158022196C170DD27D0935802C093F3
:1026300057028AE6E82E83E0F82E10E008E7812FA3
:102640008695FE01E80FF11DCF0181709927970152
:102650004091650360916403FC010E9FC0010F9FD0
:10266000900D11240E94EC0D1F5FF4E0EF0EF11CA1
:102670001F3029F7DF91CF911F910F91FF90EF90BD
:102680000C948B0EDF91CF911F910F91FF90EF90E3
:10269000089580916C02882391F190916203892FB3
:1026A00086958F732EE3280F2F73243018F48250F1
:1026B0000C9405112AE3280F2F73233018F4865049
:1026C0000C945C1127E3280F2F73263018F48950DF
:1026D0000C948C1121E3280F2F73263018F48F509F
:1026E0000C94E9112BE2280F2F73233018F4855135
:1026F0000C947B129E77903311F40C94F912089588
:10270000882319F05198599A02C0519A59985098B3
:10271000589A95E09A95F1F70000509A589895E0EC
:102720009A95F1F70000882311F0519A599885E0A5
:102730008A95F1F7000008958BB18C7F8BB9509882
:10274000589A5198599A85E08A95F1F700000895B2
:102750008AB18C7F8AB985E08A95F1F70000519A99
:10276000599885E08A95F1F70000509A589885E0CD
:102770008A95F1F7000008955098589A85E08A9557
:10278000F1F700005198599A85E08A95F1F7000019
:102790000895CF93DF93D82FC8E08D2F80780E94C3
:1027A0008013DD0FC150C9F780E00E94801385E0DF
:1027B0008A95F1F7000085E08A95F1F7000080E046
:1027C000DF91CF9108952BB1342F309523233BB166
:1027D000432B3FB7F894FC01680F791FE617F70702
:1027E00089F0819198E04BB9000000C087FF2BB9B8
:1027F000880F000000C000C000C02BB900C09A952F
:1028000091F7ECCF3FBF0895AF92BF92CF92DF9286
:10281000EF92FF920F931F93CF93DF938C01EB0105
:10282000CFB6D090BC00F8948091BC008B7F809391
:10283000BC000E949C130E94A81384E80E94C91344
:10284000CC0FDD1FCC0FDD1F78015801AC0EBD1E73
:10285000EA14FB0431F0F70181917F010E94C91352
:10286000F7CF0E94BC13CFBED092BC00579A40E86D
:10287000BE01C801DF91CF911F910F91FF90EF90A2
:10288000DF90CF90BF90AF900C94E31390937302BE
:10289000809372020895E0917202F0917302309772
:1028A00021F00190F081E02D099480E00895E091FD
:1028B0007202F0917302309721F00280F381E02DD3
:1028C00009940895E0917202F0917302309721F01B
:1028D0000480F581E02D09940895209170023091D3
:1028E00071028217930771F09093710280937002C6
:1028F000E0917202F0917302309721F00680F78127
:10290000E02D0994089520916E0230916F02821794
:10291000930771F090936F0280936E02E0917202C0
:10292000F0917302309721F00084F185E02D099435
:10293000089508950C94991481E008950E941C2232
:102940000E949D040E94B3220C948310CF92DF92C8
:10295000EF92FF920F931F93CF93DF93CDB7DEB724
:102960002B970FB6F894DEBF0FBECDBF0E940905AE
:102970000E949C14811111C08FEF89838A831B826E
:102980000E9425228160782F9D838C8349815A8102
:102990006B818D810E948A1556C085E7C82E82E022
:1029A000D82E00E010E0E02E802F0E947205F60184
:1029B00041916F01F42EF82631F40F5F1F4F0E3056
:1029C000110589F7D9CF9091300391FF04C08B870F
:1029D0000E9478058B8520E030E04F2D50E0922F4B
:1029E000BA01022E02C0759567950A94E2F760FF5E
:1029F00024C02E83EF8221E030E0690102C0CC0CBC
:102A0000DD1C9A95E2F790E08C219D21892B09F439
:102A100020E028870E9425228160782F9A87898765
:102A20004E815F8168858A850E948A15F801EB587E
:102A3000FD4F8081C826C08206C02F5F3F4F2630E1
:102A4000310569F6BACF0E944624109174020E94A3
:102A50004B141817A1F00E944B14809374022B960C
:102A60000FB6F894DEBF0FBECDBFDF91CF911F919F
:102A70000F91FF90EF90DF90CF900C940E0A2B9661
:102A80000FB6F894DEBF0FBECDBFDF91CF911F917F
:102A90000F91FF90EF90DF90CF900895DC01119699
:102AA0002C9111978C91682F70E041E050E001C0AB
:102AB000440F8A95EAF712968C91129730E088239A
:102AC00029F0809193028823E9F006C0F901ED57BF
:102AD000FD4F90819423B1F086E0829FF001839FA7
:102AE000F00D1124E60FF71FEE0FFF1FEB5EFE4FF8
:102AF000808191818D939C93F901ED57FD4F8081E9
:102B0000482B06C0F901ED57FD4F409580814823C1
:102B100040830895CF93DF93CDB7DEB72B970FB6E1
:102B2000F894DEBF0FBECDBF942F4F83252F58875B
:102B300069877A878B874A855B85452B21F02F3FF4
:102B400009F59F3FF9F4DE01119686E0FD0111922F
:102B50008A95E9F785E0FE01379601900D928A95F6
:102B6000E1F749815A816B817C818D819E810E9430
:102B7000111D2B960FB6F894DEBF0FBECDBFDF91AF
:102B8000CF910895CE0107960E944E15DCCFFC012F
:102B9000808191810E94DA1F92959F70963041F456
:102BA0008091930291E089278093930290939202FF
:102BB0000895CF93DF931F92CDB7DEB7882309F432
:102BC00003C1682F8238C1F40E944B1481FDFCC000
:102BD00069E380910301909104010E948E210E947B
:102BE00039202FEF81EE94E0215080409040E1F7B2
:102BF00000C0000069E319C0833811F50E944B142E
:102C000080FDE2C063E580910301909104010E9480
:102C10008E210E9439202FEF81EE94E021508040D8
:102C20009040E1F700C0000063E5809103019091BE
:102C300004010E9499210F90DF91CF910C943920CB
:102C40008438C1F40E944B1482FDBEC067E48091B9
:102C50000301909104010E948E210E9439202FEFE0
:102C600081EE94E0215080409040E1F700C00000E8
:102C700067E4DBCF8CEF860F813A70F4862F69838F
:102C80000E946F26698181119FC0809103019091FC
:102C900004010E948E21CFCF80E2860F883048F455
:102CA000677081E001C0880F6A95EAF70E946F2083
:102CB000C2CF8BE5860F833088F4653A29F0663AF7
:102CC00031F083E890E005C081E890E002C082E83E
:102CD00090E00F90DF91CF910C946D1488E5860FF2
:102CE000853108F071C0683A61F1693A69F16A3A70
:102CF00071F16B3A79F16C3A81F16B3B89F16C3B84
:102D000091F16D3A99F1603BA1F16E3AA9F16F3AF8
:102D1000B1F1613BB9F1623BC1F1633BC9F1643B85
:102D2000D1F1653BD9F1663BE1F1673BE9F1683BE5
:102D3000F1F1693BF9F16A3B09F43FC080E090E0B2
:102D40003EC082EE90E03BC089EE90E038C08AEE53
:102D500090E035C085EB90E032C086EB90E02FC06C
:102D600083EB90E02CC084EB90E029C087EB90E0EF
:102D700026C08CEC90E023C08DEC90E020C083E86E
:102D800091E01DC08AE891E01AC082E991E017C085
:102D900084E991E014C081E292E011C083E292E004
:102DA0000EC084E292E00BC085E292E008C086E2A9
:102DB00092E005C087E292E002C08AE292E00F90C2
:102DC000DF91CF910C9483140F90DF91CF910895F0
:102DD000882309F45BC0682F823879F40E944B1471
:102DE00081FF54C069E380910301909104010E9426
:102DF0008E210E94392069E310C08338B1F40E940B
:102E00004B1480FF43C063E580910301909104015E
:102E10000E948E210E94392063E5809103019091E8
:102E200004010E9499210C943920843879F40E947D
:102E30004B1482FF2BC067E4809103019091040141
:102E40000E948E210E94392067E4E7CF8CEF860F25
:102E5000813A18F380E2860F883048F4677081E089
:102E600001C0880F6A95EAF70E947520DCCF8BE5D8
:102E7000860F833020F480E090E00C946D14685A43
:102E8000653120F480E090E00C9483140895882349
:102E900021F00E946F200C9439200895882321F09E
:102EA0000E9475200C94392008958F929F92AF92C2
:102EB000BF92CF92DF92EF92FF920F931F93CF9327
:102EC000DF931F92CDB7DEB77C01C72EFC010581D1
:102ED00002950F701281112321F069830E948C20CA
:102EE000698169830E9432206981882381F01123DE
:102EF00071F080E2860F883050F082E00E941B2043
:102F00000E94322091E0D82ED926698101C0D12CAF
:102F1000AC2CA2948FE0A822B12CF501E258FF4F0F
:102F20000C94AD318C2D807F0C2D0F70882311F007
:102F30000295007F1123C1F0002309F4D2C180E281
:102F4000860F883010F0611105C0802F69830E94C0
:102F50006F2004C0802F69830E947F20698169836C
:102F60000E9439206981BDC1862F69830E94E816BD
:102F70006981002309F431C280E2860F883010F0A5
:102F8000611104C0802F0E94752003C0802F0E9411
:102F900085200E94392021C29C2D907F8C2D8F701E
:102FA000903211F08295807F662319F06130B1F084
:102FB0001EC0112349F0002309F44BC1013009F070
:102FC00048C10E949F2009C2002319F0013009F472
:102FD00004C289830E94A220898141C1112321F06A
:102FE000023008F0FAC135C10111F7C138C111230F
:102FF00021F0002309F42DC174C1002309F42FC16D
:1030000081C18C2D86958695837090E0009719F08C
:10301000019761F0E2C1112321F0862F9C2D93705E
:1030200002C080E090E00E946D14E7C1112321F0FE
:10303000862F9C2D937002C080E090E00E94831444
:10304000DCC11123F9F0653F51F0663F71F0643F38
:10305000A9F48091A6039091A70381600BC0809191
:10306000A6039091A703826005C08091A60390916A
:10307000A70384609093A7038093A603862F0E94E2
:103080004E231EC0653F51F0663F71F0643FA9F4C6
:103090008091A6039091A7038E7F0BC08091A60319
:1030A0009091A7038D7F05C08091A6039091A703FF
:1030B0008B7F9093A7038093A603862F0E94B6234D
:1030C0000E943B249AC18C2D837009F052C01111CB
:1030D00090C1862F829586958770880F880F962FCE
:1030E0009F70892E912CA12CB12C082E04C0880C25
:1030F000991CAA1CBB1C0A94D2F764FF14C00FE0F1
:1031000010E020E030E0B901A80104C0440F551FD1
:10311000661F771F8A95D2F7CB01BA01609570952B
:103120008095909503C060E070E0CB012C2D269532
:103130002695237030E02230310569F023303105C7
:1031400089F0682979298A299B292130310571F074
:103150000E94541E4EC1682979298A299B290E9400
:10316000661E47C10E94541EC501B4010E94421E42
:1031700040C1112319F08C2D817001C086958823E0
:1031800009F437C1862F829586958770880F880F3E
:10319000962F9F70892E912CA12CB12C082E04C043
:1031A000880C991CAA1CBB1C0A94D2F764FF14C09B
:1031B0000FE010E020E030E0B901A80104C0440FA6
:1031C000551F661F771F8A95D2F7CB01BA0160950C
:1031D00070958095909503C060E070E0CB012C2D38
:1031E000269526952370422F50E04230510569F014
:1031F0004330510589F0682979298A299B29413072
:10320000510571F00E94191FF4C0682979298A2993
:103210009B290E942B1FEDC00E94191FC501B401FC
:103220000E94071FE6C0862F90E0FC01E05EF109D6
:10323000E531F10508F051C0E257FF4F0C94AD3174
:10324000062F0F708C2D8F71112331F00E94A01E5C
:10325000802F0E944717C1C00E94C11E802F0E946C
:103260004E17BBC0112339F00111B7C08C2D8F71DF
:103270000E94E61EB2C0023008F0AFC0F7CF1123A3
:1032800039F08C2D8F710E94A01EA7C01123C9F3A5
:103290008C2D8F710E94C11EA0C0112329F08C2D8E
:1032A0008F710E948B1E99C00E94861E96C01123AA
:1032B00051F01C2D1F71812F0E94A01E63E0812FF1
:1032C0000E9412208AC081E00E941B20023008F474
:1032D00084C082E00E941B2080C0112331F00023B3
:1032E00081F2862F0E94D91578C0002389F26933B4
:1032F00049F45FEF77EE83E0515070408040E1F792
:1033000000C00000862F0E94E81667C04C2D4F7049
:10331000C7010E9436060E94B51D6FC0623FB1F022
:1033200028F4603F49F0613FF9F028C0643FB9F0EC
:1033300058F0653F71F022C0112309F449C0909103
:10334000930281E0892708C081E018271093930237
:103350003FC011113DC081E08093930239C011112B
:1033600037C01092930234C0112329F08091920249
:10337000882329F32BC0002311F32AC080919202E5
:103380000023D1F0882341F09091930281E08927B6
:103390008093930210929202862F6983112319F071
:1033A0000E94D91507C00E94E81686E0F701119225
:1033B0008A95E9F769810CC0882351F0111108C082
:1033C0009091930281E08927809393021092920258
:1033D0004C2D4F70C7010E94100AF8E0AF16B104DF
:1033E00041F05CF04AE0A41AB10852E0A516B1041D
:1033F00020F40E944B140E940E0ADD20F1F00E947E
:103400000E2080FD1AC0F70112820E9408200E943F
:10341000A01EC7010E942B1A0E9408200F90DF9166
:10342000CF911F910F91FF90EF90DF90CF90BF90C1
:10343000AF909F908F900C94C11E0F90DF91CF9111
:103440001F910F91FF90EF90DF90CF90BF90AF90C2
:103450009F908F9008950F931F93CF93DF93EC016C
:10346000888199812B813C81232BB9F09F3F11F4F6
:103470008F3F99F0CE010E94E306882371F06881A6
:1034800079818A810E94E51F8C010E943D1F0E9464
:103490003F1EB801CE010E945517DF91CF911F91B9
:1034A0000F9108950E948C200E949C20809103011E
:1034B000909104010E94A4210E9439200E94D424EA
:1034C0000E943B2480E090E00E946D1480E090E038
:1034D0000C9483140E947C200C94521A0E94DA1FD0
:1034E000E92FE295EF70F0E03297EE30F105B0F49D
:1034F000ED55FF4F0C94AD31803F91F018F4803EB4
:1035000068F40EC0843F51F40BC0803E48F0813F08
:1035100029F406C093FB882780F9089580E0089578
:1035200081E00895CF93DF9300D000D01F92CDB7F4
:10353000DEB70F900F900F900F900F90DF91CF910B
:103540000895CF93DF9300D000D000D0CDB7DEB781
:1035500026960FB6F894DEBF0FBECDBFDF91CF9198
:1035600008951F93CF93DF93C091940216E080914A
:103570009502C81799F0D0E01C9FF0011D9FF00D37
:103580001124EA56FD4F408151816281738184810B
:1035900095810E94A11A2196C770E9CFDF91CF9142
:1035A0001F9108954091C6025091C7026091C802D0
:1035B0007091C9028091CA029091CB020C94A11A19
:1035C0008091CB0282958F7009F054C08091C8021F
:1035D000882309F44FC080919402A09195026091D4
:1035E000C6027091C7024091C9025091CA02B6E06A
:1035F0008A1709F43FC090E041155105C1F17F3FA2
:1036000011F46F3FA1F1B89FF001B99FF00D1124A3
:10361000EA56FD4F218172132AC02081621327C010
:103620002281211124C0238134812417350710F40D
:1036300021503109241B350B283C3105C0F4209161
:10364000CB022F7020612093CB0226E0289FF0014F
:10365000299FF00D1124E556FD4F80818F70806108
:10366000808386EC92E00E942B1A0C94B11A01968A
:103670008770BECF0895CF92DF92EF92FF920F93A3
:103680001F93CF93DF93CDB7DEB762970FB6F89451
:10369000DEBF0FBECDBF8C0185E0F801DE011D96B7
:1036A00001900D928A95E1F7D8014C9111965C91A9
:1036B000119712966C9112971396CD90DC901497F7
:1036C0003091C6027091C7028091C9029091CA02DE
:1036D000009709F46BC17F3F19F43F3F09F466C1BD
:1036E000E090C802EE2009F4C0C02091CB02C816B9
:1036F000D90628F0F601E81BF90BCF0104C080952C
:1037000090958C0D9D1DFF24F394883C910578F0D5
:10371000F12C207F09F0C6C07C2DD98AC88A8989FE
:103720000E94921A86EC92E00E942B1AB1C0822F5E
:10373000807F09F046C0751314C0341312C06111A4
:1037400010C02F7020612093CB020E94D21A86EC09
:1037500092E00E942B1A8091CB02D80115968C938F
:103760002EC0CD2819F15F3F11F44F3FF9F0F62E2E
:1037700061111CC0809194022091950236E082175D
:1037800009F45AC090E0389FF001399FF00D1124E0
:10379000EA56FD4F7181571306C07081471303C06D
:1037A0007281711103C001968770E9CFF62E6623EE
:1037B00009F427C18091CB0281608093CB02F12C68
:1037C00020C1751308C0341306C0611104C0809174
:1037D000CB02D801C3C04D875E878D859E856A8BDD
:1037E0000E946E1A6A898823E1F16623D1F1209143
:1037F000CB02822F82958F7090E0029774F08091B7
:10380000C6029091C70298878F831986DB86CA8685
:103810002C87CE0107960E942B1A86E0F801A6ECB1
:10382000B2E001900D928A95E1F70E94E01A0E94A1
:10383000D21AFF24F394E5C04D875E878D859E855F
:103840000E94DA1F292F22952F7030E02230310597
:103850000CF0CBC09F7009F0C5C0805E883008F4C2
:10386000D0C0C8010E942B1AE4CFC816D90608F4AC
:1038700053C0F601E81BF90BCF01883C910508F411
:1038800050C0F12C7C2DD98AC88A89890E94921A4D
:10389000E6ECF2E086E0DF011D928A95E9F70E94EE
:1038A000D21AAFC0751314C0341312C0611110C006
:1038B0008091CB02F8018583C8010E942B1A86E013
:1038C000E6ECF2E0DF011D928A95E9F7FE2C99C043
:1038D0004D875E878D859E856A8B0E946E1A6A89E8
:1038E000882309F4BECF662309F4BBCF2091CB0215
:1038F000822F82958F7090E002970CF48ECF80918A
:10390000C6029091C7029A8389831B82DD82CC8292
:103910002E83CE0101967FCF809590958C0D9D1DB5
:10392000ACCFF62E662309F49CCF75132EC034134A
:103930002CC02091CB0220FD1FC0822F82958F705A
:10394000D9F0D80115962C9315978F3049F08F5FD9
:10395000982F9295907F822F8F70892B15968C933C
:10396000C8010E942B1A86E0F801A6ECB2E0019093
:103970000D928A95E1F793CF86E0F801A6ECB2E0CC
:1039800001900D928A95E1F73CC04D875E878D8549
:103990009E850E946E1A811140CF8091CB0281607A
:1039A0008093CB02C8010E942B1A2BC0662309F416
:1039B00058CF4D875E878D859E850E946E1AF82EA2
:1039C000882309F44ECF86E0F801A6ECB2E001901E
:1039D0000D928A95E1F786EC92E00E94C7150E944D
:1039E000E01A5DCF811139CF0CC0243031050CF0C5
:1039F00038CF9F7009F431CFF8019581907F09F09D
:103A00002CCF8F2D62960FB6F894DEBF0FBECDBFC0
:103A1000DF91CF911F910F91FF90EF90DF90CF90AA
:103A200008951F93CF93DF93CDB7DEB72C970FB6D2
:103A3000F894DEBF0FBECDBF4F83588769877A8762
:103A40008B879C87CE0107960E943B1B882369F0D9
:103A50008F8198852A853B85232BF1F19F3F09F0C3
:103A600063C08F3F09F060C037C086E0FE01379623
:103A7000DE01119601900D928A95E1F76F817885AC
:103A8000EA85FB85309741F17F3F11F46F3F21F1CB
:103A90002091950230E0C9010196877099274091E5
:103AA000940250E08417950709F447C069837A832C
:103AB000FD83EC8396E0929FD001939FB00D11247B
:103AC000AA56BD4FFE01319601900D929A95E1F7ED
:103AD000809395020E94B11A16E080919402909111
:103AE00095028917C1F1189FC00111248A569D4F74
:103AF0000E943B1B882379F1E09194021E9FF00104
:103B00001124EA56FD4F4081518162817381848185
:103B100095810E94A11A8091940290E0019687708D
:103B2000992780939402D9CF4F81588569857A85EA
:103B30008B859C850E94A11ACFCF0E946A1A109291
:103B4000950210929402E6ECF2E086E0DF011D920D
:103B50008A95E9F7C1CF2C960FB6F894DEBF0FBE59
:103B6000CDBFDF91CF911F910895EF92FF920F93F8
:103B70001F93CF93DF938C01892B09F46CC0F12C38
:103B8000EE24E394E8012196F8018491843740F40F
:103B9000843008F051C0813081F0823019F15BC06F
:103BA000853709F444C0A8F19CE7980F903708F0D6
:103BB00052C08F770E94E81641C00E5F1F4FFE0172
:103BC000C49180E28C0F883048F4C7708E2D01C0FC
:103BD000880FCA95EAF70E948F2014C08C2F0E948C
:103BE000D9152DC00E5F1F4FFE01C49180E28C0FCE
:103BF000883058F4C7708E2D01C0880FCA95EAF737
:103C00000E9495200E9439201AC08C2F0E94E8162D
:103C100016C00E5F1F4FFE01C491CC2381F08FE9C7
:103C20009FE00197F1F700C00000C150F6CF0E5F92
:103C30001F4FFE01F49003C00E94D9158E018F2DF5
:103C4000882309F49FCFEFE9FFE03197F1F700C037
:103C500000008150F5CFDF91CF911F910F91FF9020
:103C6000EF90089508950E94321E609307037093A9
:103C700008038093090390930A030C94521A089541
:103C80000C94331E0F931F930091070310910803A8
:103C90002091090330910A03602B712B822B932B07
:103CA0001F910F910C94331E0F931F9300910703E4
:103CB000109108032091090330910A0360237123B6
:103CC000822393231F910F910C94331E0F931F9304
:103CD00000910703109108032091090330910A0312
:103CE00060277127822793271F910F910C94331E11
:103CF0000C94A0060E94781E609303037093040343
:103D000080930503909306030C94521A60E070E0D0
:103D1000CB010C947A1E0F931F9341E050E060E0BA
:103D200070E08A019B0104C0000F111F221F331F86
:103D30008A95D2F7C901B8011F910F910C947A1E90
:103D40000F931F9341E050E060E070E004C0440F27
:103D5000551F661F771F8A95D2F7809103039091B4
:103D60000403A0910503B09106038A019B01082B6F
:103D7000192B2A2B3B2BC901B8011F910F910C94D1
:103D80007A1E0F931F9341E050E060E070E004C0A2
:103D9000440F551F661F771F8A95D2F7409550959F
:103DA000609570958091030390910403A0910503A1
:103DB000B09106038A019B01082319232A233B2380
:103DC000C901B8011F910F910C947A1E0F931F9394
:103DD00041E050E060E070E004C0440F551F661FF2
:103DE000771F8A95D2F78091030390910403A091E5
:103DF0000503B09106038A019B01082719272A278A
:103E00003B27C901B8011F910F910C947A1E0F93A3
:103E10001F93009103031091040320910503309137
:103E20000603602B712B822B932B1F910F910C9407
:103E30007A1E0F931F9300910303109104032091A6
:103E400005033091060360237123822393231F917E
:103E50000F910C947A1E0F931F93009103031091FE
:103E60000403209105033091060360277127822700
:103E700093271F910F910C947A1E0895292F220FDA
:103E8000920F990F890FA82FA695A695A6958770D2
:103E900051E001C0550F8A95EAF785E0A89FD0014F
:103EA000112420E030E070E0F901EA0FFB1FE45339
:103EB000FD4F4081CB01022E02C0969587950A9452
:103EC000E2F7817099278195842785238427808351
:103ED0002F5F3F4F2530310539F70895292F220FE5
:103EE000920F990F890F682F669566956695982FA2
:103EF000977085E0689FB001112440E050E080E0B9
:103F0000FA01E60FF71FE453FD4F208130E0092E40
:103F100002C0369527950A94E2F721703327042EC4
:103F200001C0220F0A94EAF7822B4F5F5F4F4530A2
:103F3000510531F70895CF92DF92EF92FF920F93E0
:103F40001F93CF93DF938C01C0900703D090080399
:103F5000E0900903F0900A03809103039091040319
:103F6000A0910503B0910603C82AD92AEA2AFB2AA0
:103F7000CFE1D0E0D701C6010C2E04C0B695A795BD
:103F8000979587950A94D2F780FF06C0B8018C2FC9
:103F90000E942B0A019721F4219760F780E001C06D
:103FA0008C2FDF91CF911F910F91FF90EF90DF90B9
:103FB000CF900895CF93DF93EC010E949B1FBE0129
:103FC0000E942B0ADF91CF9108951F93CF93DF9327
:103FD000EB0190919102992321F0CB010E94DA1F0D
:103FE00013C0882349F0CB010E949B1F182F682F14
:103FF000CE010E943E1F04C0CB010E946E1F182FED
:10400000BE01812F0E942B0ADF91CF911F9108954D
:1040100080910B03859585958595089580910B0377
:104020008770089598E0899F90011124262B209392
:104030000B030C94A01E20910B0380958223809388
:104040000B03982F977069F430E0482F082E000C6E
:10405000550B2417350729F08595859585950C9482
:10406000C11E089590910B03977081E009F480E0E0
:104070000895E0910301F091040180912F03808362
:10408000E0910301F0910401908180912E03892B2E
:104090008083E0910301F0910401908180912D03D0
:1040A000892B808380910C03882381F0E0910301A8
:1040B000F09104019081892B80838091030190917C
:1040C00004010E943221811110920C03809103019E
:1040D000909104010C94571480912F0308959091AE
:1040E0002F03892B80932F030895809590912F03A0
:1040F000892380932F03089510922F0308959091A0
:104100002E03892B80932E030895809590912E0382
:10411000892380932E03089510922E030895909181
:104120002D03892B80932D030895809590912D0365
:10413000892380932D03089510922D030895809371
:104140000C03089510920C030895CF92DF92EF9222
:10415000FF926C01EE24FF24C114D104E104F104A8
:1041600021F0C701B60120E101C020E0C72ED82E02
:10417000E92EFF24C114D104E104F10419F0285FF1
:10418000C701B6016B017C0154E0F694E794D79423
:10419000C7945A95D1F7C114D104E104F10419F080
:1041A0002C5FC701B6016B017C0142E0F694E794F5
:1041B000D794C7944A95D1F7C114D104E104F1040E
:1041C00019F02E5FC701B601DC01CB01B695A795AA
:1041D00097958795892B8A2B8B2B09F02F5F822F40
:1041E000FF90EF90DF90CF9008956DEE7EEF80E02E
:1041F00090E00E94E53160E082E090E00E94C731EB
:1042000060E083E090E00E94C73160E084E090E0ED
:104210000E94C73160E085E090E00E94C73140E035
:1042200050E0BA0188E090E00C94D93180E090E051
:104230000E94C13121E08D3E9E4F09F020E0822F87
:10424000089582E090E00C94B33183E090E00C9408
:10425000B33184E090E00C94B331682F84E090E0B7
:104260000C94C731FC0131969C01205E3F4F80E0E9
:10427000919191118F5FE217F307D1F708959C0197
:10428000FC0132969FEF80E04191461789F09F3FF5
:1042900019F4411101C0982F8F5F8E31A9F79F3F0C
:1042A00039F0F901E90FF11D97FDFA956283089540
:1042B0000895FC01329680962081261301C0108259
:1042C0003196E817F907C1F70895262F2695269508
:1042D00026952F3168F4FC01E20FF11D677021E093
:1042E00030E001C0220F6A95EAF78181282B2183F3
:1042F0000895262F2695269526952F3170F4FC01DA
:10430000E20FF11D677021E030E001C0220F6A95D5
:10431000EAF72095818128232183089520911401B3
:10432000222329F02091AC0327FD0C9465210C94E5
:104330003F2120911401222329F02091AC0327FD75
:104340000C9479210C945921FC013196809611929C
:10435000E817F907E1F708958091B203843039F145
:104360001092310320E488E190E00FB6F894A8950C
:10437000809360000FBE2093600080E00E940E0AD0
:1043800083B7817F846083BF83B7816083BF789464
:10439000889583B78E7F83BF0FB6F894A8958091D8
:1043A0006000886180936000109260000FBE0895E5
:1043B0000895CF930E94BC040E9409050E94D82151
:1043C000C0E08C2F0E947205811104C0CF5FCE30F7
:1043D000C1F701C081E0CF9108950E946A1A0E943E
:1043E0004B140C940E0A1F920F920FB60F921124C9
:1043F0008F939F93AF93BF9380913103811113C02B
:104400008091A8039091A903A091AA03B091AB0356
:104410004196A11DB11D8093A8039093A903A09379
:10442000AA03B093AB03BF91AF919F918F910F906F
:104430000FBE0F901F90189582E084BD93E095BD4C
:104440009AEF97BD80936E0008952FB7F8948091EE
:10445000A8039091A903A091AA03B091AB032FBF29
:104460000895CF92DF92EF92FF920F931F932FB791
:10447000F8944091A8035091A9036091AA03709108
:10448000AB032FBF6A017B01EE24FF248C0120E0E7
:1044900030E0C016D106E206F30610F4415051098F
:1044A0009A01281B390BC9011F910F91FF90EF90C2
:1044B000DF90CF90089578941F920F920FB60F92CD
:1044C00011248F939F93AF93BF938091A8039091F2
:1044D000A903A091AA03B091AB030196A11DB11D40
:1044E0008093A8039093A903A093AA03B093AB036E
:1044F000BF91AF919F918F910F900FBE0F901F9022
:104500001895F89481E08093E00080E28093D800D1
:10451000E9ECF0E010828FE19EE40197F1F700C032
:1045200000001DBA109268001CBC10BE1FBA109289
:104530007A0010926E0010926F001092710010922B
:1045400072001082ECEBF0E0108214B817B81AB8C1
:104550001DB810BA108215B818B81BB81EB811BA19
:104560000C94003F08950E941621811102C00E9400
:10457000F5200E942121809330030E94292190E0A0
:104580009093AD038093AC030E942521682F70E0C7
:1045900080E090E00C94401E8091350380FF0BC0BA
:1045A0006091080185E0689FB001112475956795B9
:1045B000759567952BC081FF09C06091080185E062
:1045C000689FB00111247595679520C082FF07C0D0
:1045D0006091080185E0689FB001112417C0909197
:1045E00036039923D1F060910701961788F720913F
:1045F000080185E0289F90011124929FA001939FBC
:10460000500D112470E0CA010E9499316038710583
:1046100040F46115710539F002C065E070E0862F45
:1046200008958FE7089581E008958091350380FF14
:1046300008C06091060170E075956795759567955E
:1046400021C081FF06C06091060170E075956795F5
:1046500019C082FF04C06091060170E010C0909103
:1046600036039923C1F0609105019617A0F7809158
:104670000601899FC001112470E00E9499316038C1
:10468000710528F46115710521F0862F08958FE7D3
:10469000089581E0089561E070E0F4CF803F21F457
:1046A0000E94CC22819504C0813F29F40E94CC2233
:1046B000809339030895823F21F40E94CC22819592
:1046C00004C0833F29F40E94CC22809338030895CC
:1046D000893F19F40E94152305C08A3F31F40E94D6
:1046E0001523819580933A0308958B3F21F40E940E
:1046F0001523819504C08C3F29F40E9415238093D3
:104700003B030895843F21F480913703816017C0F3
:10471000853F21F480913703826011C0863F21F4E8
:104720008091370384600BC0873F21F48091370369
:10473000886005C0883F31F48091370380618093A1
:10474000370308958D3F21F48091350381600BC0BC
:104750008E3F21F480913503826005C08F3F29F49C
:10476000809135038460809335030895803F39F448
:104770008091390387FF6CC01092390369C0813F73
:1047800029F4809139031816BCF362C09091380364
:10479000823F29F497FF5CC01092380359C0833FD1
:1047A00019F41916CCF354C0893F41F480913A03AF
:1047B00018160CF04DC010923A034AC08A3F29F4F3
:1047C00080913A0387FF44C0F6CF8B3F39F4809144
:1047D0003B0387FF3DC010923B033AC08C3F29F456
:1047E00080913B031816BCF333C0843F21F48091C1
:1047F00037038E7F17C0853F21F4809137038D7F6B
:1048000011C0863F21F4809137038B7F0BC0873F17
:1048100021F480913703877F05C0883F31F4809170
:1048200037038F7E8093370313C08D3F21F480912F
:1048300035038E7F0BC08E3F21F4809135038D7F31
:1048400005C08F3F29F4809135038B7F809335031A
:104850008091380381110EC08091390381110AC003
:1048600080913A03811106C080913B03811102C0FF
:1048700010923603089587E393E00E9462140E9429
:104880002522909333038093320308951F93CF938F
:10489000DF9380913203909133030E943122AC0167
:1048A00090913603992321F02091090130E006C050
:1048B000209134038AE0289F900111244217530766
:1048C00008F46EC080913803C0913903D0913A0347
:1048D00010913B03811107C0C1115EC0D1115CC0B2
:1048E00011115AC05DC09F3F19F09F5F909336032E
:1048F000181624F40E94CC22809338038091380348
:1049000087FF05C00E94CC228195809338031C1636
:1049100024F40E94CC22809339038091390387FFCD
:1049200005C00E94CC2281958093390340913803C1
:10493000442379F030913903332359F025EB4203B6
:10494000A0011124509338033203C0011124909325
:1049500039031D1624F40E94152380933A03809195
:104960003A0387FF05C00E941523819580933A037F
:10497000111624F40E94152380933B0380913B037E
:1049800087FF05C00E941523819580933B03DF912B
:10499000CF911F910C943B249F3F09F0A6CFAECF3F
:1049A000DF91CF911F910895E7E3F3E085E0DF0108
:1049B0001D928A95E9F710923603109235030895F7
:1049C000833081F128F4813059F08230D1F008959C
:1049D000853009F449C0B8F1863009F456C008950D
:1049E00080913403262F30E0280F311D2F3F3105F1
:1049F00024F4680F6093340308958FEF8093340399
:104A0000089580910901262F30E0280F311D2F3F96
:104A1000310524F4680F6093090108958FEF8093A6
:104A20000901089580910801262F30E0280F311DDB
:104A30002F3F310524F4680F6093080108958FEF2C
:104A400080930801089580910701262F30E0280FF8
:104A5000311D2F3F310524F4680F6093070108953D
:104A60008FEF80930701089580910601262F30E093
:104A7000280F311D2F3F310524F4680F6093060184
:104A800008958FEF80930601089580910501262FE8
:104A900030E0280F311D2F3F310524F4680F60935B
:104AA000050108958FEF809305010895833011F17A
:104AB00028F4813049F0823091F00895853081F1F9
:104AC00020F18630C1F1089580913403681720F4F5
:104AD000861B8093340308951092340308958091C7
:104AE0000901681720F4861B80930901089510922C
:104AF0000901089580910801681720F4861B8093AE
:104B0000080108951092080108958091070168171F
:104B100020F4861B809307010895109207010895E1
:104B200080910601681720F4861B80930601089582
:104B300010920601089580910501681720F4861BE4
:104B40008093050108951092050108950F931F9316
:104B5000873208F04DC08E3108F093C0803109F4DF
:104B60007DC008F5873009F46BC068F4863009F021
:104B7000A3C080913003817F8E7F8093300381E0DA
:104B800080933D039AC08B3009F48FC08E3009F0BA
:104B900093C08091300382FB222720F991E0922775
:104BA00090FB82F964C0863109F47FC088F48131BA
:104BB00009F082C00E946A1A8091AC0387FB222709
:104BC00020F991E0922790FB87F98093AC036DC0A8
:104BD000893109F46AC08B3109F06EC080913003CD
:104BE00081FB222720F991E0922790FB81F93FC0B9
:104BF000883309F45AC050F4893209F458C0853317
:104C000009F455C0873209F452C056C0833409F400
:104C10004EC028F48A3308F44FC0895333C0883417
:104C200009F04AC00E946A1A0FEF13ED20E3015009
:104C300010402040E1F700C000000E94812235C0F2
:104C400080913003982F9095917090FB80F980931C
:104C5000300391112AC0897F877F10C08091300373
:104C600083FB222720F991E0922790FB83F9809320
:104C700030039923D1F08091300381608093300319
:104C800014C08D5141E050E060E070E08A019B016A
:104C900004C0000F111F221F331F8A95D2F7C901CC
:104CA000B8010E94401E0E946A1A81E006C061E0BD
:104CB00070E080E090E0F5CF80E01F910F910895C3
:104CC00080E0089580E008958E518A3030F4E82F16
:104CD000F0E0E354FE4F8081089580E00895CF9383
:104CE000C82F80913D03813079F018F08230E9F1CE
:104CF00085C0E0910301F09104018081813169F068
:104D0000823209F07DC009C0E0910301F0910401F5
:104D10008081813111F0823261F48C2F0E946026F3
:104D2000811104C08C2F0E94A6251DC081E090E057
:104D30001AC08C2F0E946226811114C0C43179F0F0
:104D400048F4CB3079F0C03109F05EC082E0809346
:104D50003D0308C0C93219F0C83321F055C0109284
:104D60003D0352C081E0817051C0C93279F108F52C
:104D7000C43161F1A0F4C73009F044C0109234038B
:104D800084E180930901C09308018CE380930701BB
:104D900088E08093060188E28093050133C082EEAB
:104DA0008C0F863078F58C2F0E94642680933C030C
:104DB00029C0CE34E9F020F4CB3421F56AE013C0E9
:104DC000C13579F0C235F1F461E00DC080913C034A
:104DD000882319F010923C0315C081E080933D03B5
:104DE00015C061E006C080913C030E94E0240AC027
:104DF0006AE080913C030E94562504C010923D0356
:104E000080E004C081E002C080E0ADCFCF91089582
:104E100080915E0308950F931F93CF93DF9300D08B
:104E20001F92CDB7DEB78C010E948329823011F02A
:104E3000843019F593E099831B830A839093E900EA
:104E40008FEF9091E800815095FD06C095ED9A9501
:104E5000F1F700008111F5CF8091E80085FF0DC0CA
:104E600040E050E063E070E0CE0101960E94A0298E
:104E70008091E8008E778093E8000F900F900F905C
:104E8000DF91CF911F910F910895CF93DF9300D0C1
:104E90001F92CDB7DEB72091B203243031F522E066
:104EA0002983805891099B838A8383E08093E9005A
:104EB0008FEF9091E800815095FD06C095ED9A9591
:104EC000F1F700008111F5CF8091E80085FF0DC05A
:104ED00040E050E063E070E0CE0101960E94A0291E
:104EE0008091E8008E778093E8000F900F900F90EC
:104EF000DF91CF910895CF93DF93EC010E94832936
:104F0000823011F08430F9F482E08093E9009FEF61
:104F10008091E800915085FD06C085ED8A95F1F7F6
:104F200000009111F5CF8091E80085FF0CC040E0B2
:104F300050E065E070E0CE010E94A0298091E80079
:104F40008E778093E800DF91CF910895CF93DF9320
:104F5000EC010E948329823019F0843009F047C0A7
:104F6000809114018823E1F08091AC0387FF18C081
:104F700084E08093E9008FEF9091E800815095FDE7
:104F800006C095E19A95F1F700008111F5CF809167
:104F9000E80085FF2CC040E050E060E270E017C000
:104FA00081E08093E9008FEF9091E800815095FDBA
:104FB00006C095ED9A95F1F700008111F5CF80912B
:104FC000E80085FF14C040E050E068E070E0CE01EA
:104FD0000E94A0298091E8008E778093E80080E20B
:104FE000FE01AEE3B3E001900D928A95E1F7DF9107
:104FF000CF9108958091B103811109C00E94352B92
:105000000E94922B8091E20084608093E2000895D8
:105010001092B1030895089508950C94ED2142E093
:1050200061EC81E00E94AF2A42E061EC82E00E94E4
:10503000AF2A42E061EC83E00E94AF2A42E261ECD9
:1050400084E00C94AF2A8091B403833009F455C0F6
:1050500030F4813071F0823009F48EC008958A30C6
:1050600009F47AC08B3009F460C0893009F09CC023
:1050700020C08091B303813A09F096C08091E80086
:10508000877F8093E8008091B7039091B803892BC4
:1050900021F460E28EE393E003C060E080E090E002
:1050A00070E00E94EB298091E8008B778093E80004
:1050B00008958091B303813209F076C08091B703DF
:1050C0009091B803009719F0039709F06DC0809193
:1050D000E800877F8093E8008091E80082FD05C0AA
:1050E0008091B2038111F8CF5FC08091F10080936D
:1050F0005E038091E8008B7753C08091B303813ABF
:1051000009F052C08091B7039091B803892B09F040
:105110004BC08091E800877F8093E8008091E80091
:1051200080FFFCCF8091140136C08091B30381329F
:10513000D9F58091B7039091B803892BA9F5809197
:10514000E800877F8093E8000E94E42A8091B503FD
:10515000809314010C946A1A8091B303813221F573
:105160008091E800877F8093E8000E94E42A809184
:10517000B60380935F0308958091B303813AA1F44D
:105180008091E800877F8093E8008091E80080FFAD
:10519000FCCF80915F038093F1008091E8008E77CF
:1051A0008093E8000C94E42A089584B7877F84BF35
:1051B0000FB6F894A8958091600088618093600094
:1051C000109260000FBE80E8809361001092610031
:1051D0000E949A140E94352B0E94922B8091E2002B
:1051E00084608093E20078940E94212E0E949E1495
:1051F0008AE091E00E9446148091B203853069F400
:105200000E94AC218091B0038823B1F30E94D92180
:10521000882391F30E948A29EFCF0E94A6140E944E
:105220004913EACF0C941429292F33272330310551
:10523000C9F064F42130310581F02230310509F0E4
:1052400049C08DE690E02CEC35E048C021323105B4
:1052500021F12232310571F13DC082E190E029E374
:1052600036E03CC099278130910571F02CF4892BF0
:1052700089F5E8ECF5E00DC08230910541F0039727
:1052800049F5E2E9F5E005C0E0EBF5E002C0E8E948
:10529000F5E0849190E09F0121C064307105D0F465
:1052A000660F771FFB01ED52FE4F2081318189E0AF
:1052B00090E014C06430710568F4FB01EE0FFF1F2D
:1052C000E553FE4F20813181FB01E953FE4F808180
:1052D00090E004C080E090E020E030E0FA0131830B
:1052E000208308950895CF93C82F0E947229C093F8
:1052F0006003CF9108958091B203843011F081E072
:10530000089582E0089580916003811102C00C9499
:105310007B29089580E189BD82E189BD09B400FE41
:10532000FDCF8091D8008F7D8093D8008091E000E0
:1053300082608093E0008091E00081FDFCCF0895C1
:10534000CF92DF92EF92FF920F931F93CF93DF9351
:10535000EC018B016A010E94032B811133C0C1143F
:10536000D10439F0F60180819181081B190BC80F17
:10537000D91FE12CF12C0115110519F18091E800DC
:1053800085FD16C08091E8008E778093E800C114F7
:10539000D10449F0F60180819181E80EF91EF18275
:1053A000E08285E00FC00E94032B882321F30AC00E
:1053B00089918093F10001501109FFEFEF1AFF0A64
:1053C000DACF80E0DF91CF911F910F91FF90EF90A6
:1053D000DF90CF9008952091B9033091BA0326173A
:1053E000370748F06115710539F42091E8002E77F0
:1053F0002093E80001C0B90140E061157105A9F1F1
:105400002091B203222309F443C0253009F442C09D
:105410002091E80023FD40C02091E80022FD32C029
:105420002091E80020FFE9CF4091F3002091F200A5
:1054300030E0342BFC01CF016115710559F02830A3
:10544000310540F481918093F100615071092F5F23
:105450003F4FF1CF41E02830310509F040E0209185
:10546000E8002E772093E800C8CF4111C9CF0AC0C9
:105470008091B203882361F0853061F08091E8006B
:1054800083FD0AC08091E80082FFF2CF80E008959A
:1054900082E0089583E0089581E008952091B903A2
:1054A0003091BA032617370748F06115710539F4B2
:1054B0002091E8002E772093E80001C0B901FC019B
:1054C00020E06115710591F18091B203882309F400
:1054D00040C0853009F43FC08091E80083FD3DC0A5
:1054E0008091E80082FD2FC08091E80080FFE9CF25
:1054F0002091F3008091F20090E0922B61157105EC
:1055000059F08830910540F424912093F1003196B0
:10551000615071090196F2CF21E0089709F020E06F
:105520008091E8008E778093E800CBCF2111CCCF1B
:105530000AC08091B203882361F0853061F08091C8
:10554000E80083FD0AC08091E80082FFF2CF80E08E
:10555000089582E0089583E0089581E00895982FEA
:10556000973058F59093E900981739F07091EC0056
:105570002091ED005091F00003C0242F762F50E0D1
:1055800021FF19C03091EB003E7F3093EB0030914A
:10559000ED003D7F3093ED003091EB0031603093B2
:1055A000EB007093EC002093ED005093F0002091FD
:1055B000EE0027FF07C09F5FD3CF8F708093E90075
:1055C00081E0089580E008958091B30387FF11C0C2
:1055D0008091E80082FD05C08091B2038111F8CF6F
:1055E00011C08091E8008B770BC08091B2038823B3
:1055F00049F08091E80080FFF8CF8091E8008E7735
:105600008093E80008952091E4003091E50095E64C
:105610004091EC00842F817040FF22C08091E8000F
:1056200080FD1CC08091B203882391F0853091F0F9
:105630008091EB0085FD10C04091E4005091E500A1
:105640004217530729F39A01915011F784E0089506
:1056500082E0089583E0089581E0089580E0089550
:105660004091E80042FFDECF08950E94A32B0E94E4
:10567000AB2BE0EEF0E0808181608083E8EDF0E02C
:1056800080818F77808319BCA7EDB0E08C918E7FED
:105690008C9380818F7E80831092B10308950F9345
:1056A0001F93CF93DF930E94A32B0E94AB2BC8EDD7
:1056B000D0E088818F77888388818068888388811B
:1056C0008F7D888319BC1092B2031092AE031092A2
:1056D000B0031092AF0300EE10E0F80180818B7FE1
:1056E000808388818160888342E060E080E00E945E
:1056F000AF2AE1EEF0E080818E7F8083E2EEF0E081
:10570000808181608083808188608083F8018081CE
:105710008E7F8083888180618883DF91CF911F9104
:105720000F910895E8EDF0E080818F7E8083E7EDB2
:10573000F0E080818160808384E082BF81E080939B
:10574000B1030C944F2BE8EDF0E080818E7F8083D5
:105750001092E20008951092DA001092E10008958C
:105760001F920F920FB60F9211242F933F934F93D6
:105770005F936F937F938F939F93AF93BF93EF93B9
:10578000FF938091E10082FF0BC08091E20082FFD5
:1057900007C08091E1008B7F8093E1000E94202E62
:1057A0008091DA0080FF1FC08091D80080FF1BC06D
:1057B0008091DA008E7F8093DA008091D90080FF9B
:1057C0000DC080E189BD82E189BD09B400FEFDCF35
:1057D00081E08093B2030E94FA2705C019BC1092A1
:1057E000B2030E9408288091E10080FF19C08091D7
:1057F000E20080FF15C08091E2008E7F8093E2007E
:105800008091E20080618093E2008091D800806204
:105810008093D80019BC85E08093B2030E940C28C5
:105820008091E10084FF30C08091E20084FF2CC0B1
:1058300080E189BD82E189BD09B400FEFDCF809180
:10584000D8008F7D8093D8008091E1008F7E809377
:10585000E1008091E2008F7E8093E2008091E2007F
:1058600081608093E2008091AE03882311F084E090
:1058700007C08091E30087FD02C081E001C083E0A2
:105880008093B2030E940D288091E10083FF29C01C
:105890008091E20083FF25C08091E100877F8093A3
:1058A000E10082E08093B2031092AE038091E100A8
:1058B0008E7F8093E1008091E2008E7F8093E200F2
:1058C0008091E20080618093E20042E060E080E04D
:1058D0000E94AF2A8091F00088608093F0000E94BF
:1058E0000B28FF91EF91BF91AF919F918F917F9185
:1058F0006F915F914F913F912F910F900FBE0F903D
:105900001F9018951F920F920FB60F9211242F938C
:105910003F934F935F936F937F938F939F93AF9337
:10592000BF93CF93DF93EF93FF93C091E900CF70C4
:105930008091EC00D82FD17080FDD0E81092E90062
:105940008091F000877F8093F00078940E94C62CAD
:105950001092E9008091F00088608093F000CD2BD8
:10596000CF70C093E900FF91EF91DF91CF91BF918C
:10597000AF919F918F917F916F915F914F913F91E7
:105980002F910F900FBE0F901F9018951F93CF93DC
:10599000DF93CDB7DEB7AA970FB6F894DEBF0FBE80
:1059A000CDBFE3EBF3E088E08E0F9091F10091938F
:1059B0008E13FBCF0E9423288091E80083FF28C12B
:1059C0008091B3039091B403492F50E04A305105C0
:1059D00008F01EC1FA01EF54FF4F0C94AD3180382E
:1059E00021F0823809F014C108C08091AF03909172
:1059F000B003992389F082600FC08091B7038F7044
:105A0000873008F005C18093E9008091EB0085FBA9
:105A1000882780F91092E9009091E800977F909391
:105A2000E8008093F1001092F100D0C0282F2D7F64
:105A300009F0EEC0882319F0823061F0E9C080914E
:105A4000B503813009F0E4C0933009F080E0809321
:105A5000B0032EC08091B50381112AC08091B70395
:105A60008F702FEF280F263008F0D2C08093E90006
:105A70002091EB0020FF1CC0933021F48091EB00BB
:105A8000806214C09091EB0090619093EB0021E054
:105A900030E0A90102C0440F551F8A95E2F74093F8
:105AA000EA001092EA008091EB0088608093EB009E
:105AB0001092E9008091E800877F8093E8000E94BF
:105AC000E42AA6C08111A4C01091B5031F7780916C
:105AD000E3008078812B8093E3008091E800877F4A
